:1010000000000420BD120000E5120000ED140000F5
:10101000F1140000F5140000F914000000000000B5
:10102000000000000000000000000000EF120000BF
:10103000F112000000000000F3120000F5120000A1
:10104000F7120000F7120000F7120000F71200007C
:10105000F7120000F7120000F7120000F71200006C
:10106000F7120000F7120000F7120000F71200005C
:10107000F7120000F7120000F7120000F71200004C
:10108000F7120000F7120000F7120000F71200003C
:10109000F7120000F7120000F7120000F71200002C
:1010A000F7120000F7120000F7120000F71200001C
:1010B000F7120000F712000000000000000000001E
:1010C000F7120000F7120000F7120000F7120000FC
:1010D000F7120000F7120000F7120000F7120000EC
:1010E000F7120000F7120000F712000000000000E5
:1010F00000000000F712000000000000F7120000DE
:1011000000000000000000000000000000000000DF
:1011100000000000000000000000000000000000CF
:1011200000000000000000000000000000000000BF
:1011300000000000000000000000000000000000AF
:10114000000000000000000000000000000000009F
:10115000000000000000000000000000000000008F
:10116000000000000000000000000000000000007F
:10117000000000000000000000000000000000006F
:10118000000000000000000000000000000000005F
:10119000000000000000000000000000000000004F
:1011A000000000000000000000000000000000003F
:1011B000000000000000000000000000000000002F
:1011C000000000000000000000000000000000001F
:1011D000000000000000000000000000000000000F
:1011E00000000000000000000000000000000000FF
:1011F00000000000000000000000000000000000EF
:1012000010B5054C237833B9044B13B10448AFF340
:1012100000800123237010BD740100200000000035
:10122000C017000008B5034B1BB103490348AFF3D7
:10123000008008BD0000000078010020C0170000F9
:10124000A3F5803A704700BF174B002B08BF134B24
:101250009D46FFF7F5FF00218B460F461348144AC1
:10126000121A00F093FA0E4B002B00D098470D4B4A
:10127000002B00D098470020002104000D000D48ED
:10128000002802D00C48AFF3008000F05BFA200089
:10129000290000F07DF800F041FA00BF00000800CE
:1012A0000000000000000000000004207401002085
:1012B000A402002000000000000000000649074AC8
:1012C000074B9B1A03DD043BC858D050FBDC00F0F1
:1012D00015F9FFF7B9FF0000CC1700000800002047
:1012E00074010020FEE7FEE7FEE7FEE7FEE7FEE70B
:1012F000FEE7FEE7FEE7FEE71F4B204A20482149B4
:1013000070B40426C3F810650726C3F80062C3F85A
:10131000142540F25B62C3F81805C3F8382540F283
:1013200003101A22C3F83C15174DC3F834050021E9
:10133000C3F80825154CC3F804556FF08E00012240
:10134000C3F80011C3F80C11C3F81C45C3F82405F9
:10135000C3F82C15C3F83025D3F8502642F0F852C4
:1013600042F4F812C020C3F85026C3F84405C3F86D
:101370000C1570BC704700BF001000400801000150
:10138000FF00030055555500A001002000294176BB
:101390002DE980484FF0804300210122C3F800115D
:1013A00083B019461A60D1F80031002BFBD0FFF74B
:1013B000A3FF464B46494748474C484FDFF8248136
:1013C000DFF824E1464E012500225D60AC46C3F8FB
:1013D00010214FF00309256825B12568B5FA85F578
:1013E0006D0925602568002DF5D1D3F81051002D29
:1013F000FBD0C3F810213D6801353D60D3F800549F
:10140000002D4AD002250195DDF804A0D8F800503F
:10141000BAF1040F05F10105C8F800500DD8DDF848
:1014200004B0DDF804A0019D10F80BB001F80AB07B
:1014300001350195019D042DF1D9C3F804155A60B9
:10144000D3F80051002DFBD0C3F80021C3F800925F
:10145000D3F80C51002DFBD0C3F80C21D3F8105158
:10146000002DFBD0C3F81021356801353560C3F875
:1014700004051A60C3F804C0D3F80051002DFBD056
:101480000725C3F80021C3F800522568002DA2D11A
:10149000D3F81051002DA8D0ABE702250195DDF857
:1014A00004A0DEF80050BAF1040F05F10105CEF8F2
:1014B0000050C2D8DDF804A0019D01F80A200135D2
:1014C0000195019D042DF5D9B7E700BF001000403C
:1014D00008000020A00100209401002098010020B5
:1014E000A00200209C01002090010020FEE700BF28
:1014F000FEE700BFFEE700BFFEE700BF10B4754B7C
:101500001B68082B1CD0744AD2F8883043F470034F
:10151000C2F88830BFF34F8FBFF36F8F4FF01023A7
:10152000D3F80022002AC0F2A380D3F80432002BA3
:10153000C0F29E80694B6A4A1A605DF8044B70479E
:101540004FF080414FF080520020C1F80C01654BF4
:10155000C1F81001C1F83805D2F80414C3F82015F9
:10156000D2F80814C3F82415D2F80C14C3F82815BF
:10157000D2F81014C3F82C15D2F81414C3F830158F
:10158000D2F81814C3F83415D2F81C14C3F8401557
:10159000D2F82014C3F84415D2F82414C3F848151F
:1015A000D2F82814C3F84C15D2F82C14C3F85015EF
:1015B000D2F83014C3F85415D2F83414C3F86015B7
:1015C000D2F83814C3F86415D2F83C04C3F868059F
:1015D0004549D2F84004C3F86C050968D2F84424A0
:1015E000C3F87025032937D8404B5B5C13B1404BDF
:1015F000404A1A60404B5B5C63B1364B3F491B6805
:10160000394AFB20C1F81805082B11687FF47BAF1D
:10161000032921D83A4B5B5C93B13A483A4B2D4CA5
:1016200002681B682468304922F00F0203F00F03A0
:101630001343082C096803607FF465AF03290BD8B6
:10164000324B5B5C43B1234B314A1B684FF4007152
:10165000082B11607FF457AF4FF08043D3F800247C
:10166000D2077FF550AF6FF00102C3F800244AE7BC
:10167000284A0123C2F80435D2F80034002BFBD0ED
:101680004FF010231221234AC3F80012D2F800347D
:10169000002BFBD04FF0102312211E4AC3F8041276
:1016A000D2F80034002BFBD000231A49C2F80435CD
:1016B000D1F80034002BFBD0BFF34F8F0649164BF7
:1016C000CA6802F4E0621343CB60BFF34F8F00BFE0
:1016D000FDE700BF3001001000ED00E00801002030
:1016E0000090D00300C0004034010010B817000083
:1016F0008C56004048810300B817000000F00040FD
:10170000B8170000E40E004058020010B81700009F
:101710004096024000E001400400FA0508B5074B7E
:10172000044613B10021AFF30080054B1868836AAB
:1017300003B19847204600F031F800BF00000000D8
:10174000BC17000070B50D4D0D4C641BA410002695
:10175000A64209D10B4D0C4C00F022F8641BA410DA
:101760000026A64205D170BD55F8043B98470136C6
:10177000EEE755F8043B98470136F2E76C0100208C
:101780006C0100206C01002070010020024403461F
:10179000934200D1704703F8011BF9E7FEE700BF51
:1017A000F8B500BFF8BC08BC9E467047F8B500BF4E
:1017B000F8BC08BC9E467047010000000C010020E8
:0417C0000000000025
:0817C4007CFAFF7F0100000028
:1017CC000004FFC1FB03000000000000000000004B
:1017DC0000000000000000000000000000000000FD
:1017EC0000000000000000000000000000000000ED
:1017FC0000000000000000000000000000000000DD
:10180C0000000000000000000000000000000000CC
:10181C0000000000000000000000000000000000BC
:10182C0000000000000000000000000000000000AC
:10183C00000000000000000000000000000000009C
:10184C00000000000000000000000000000000008C
:10185C00000000000000000000000000000000007C
:10186C00000000000000000000000000000000006C
:10187C00000000000000000000000000000000005C
:10188C00000000000000000000000000000000004C
:10189C00000000000000000000000000000000003C
:1018AC00000000000000000000000000000000002C
:1018BC00000000000000000000000000000000001C
:1018CC000090D003000000000000000000000000A9
:1018DC0000000000000000000000000000000000FC
:1018EC0000000000000000000000000000000000EC
:1018FC0000000000000000000000000000000000DC
:10190C0000000000000000000000000000000000CB
:10191C0000000000000000000000000000000000BB
:0C192C0000000000251200000112000065
:04000003000012BD2A
:00000001FF
