:1000000000000220BD020000E5020000A90500007A
:10001000AD050000B1050000B505000000000000BE
:10002000000000000000000000000000EF020000DF
:10003000F102000000000000F3020000F5020000E1
:10004000F7020000F7020000F9020000F7020000CA
:10005000F7020000F7020000F7020000F7020000BC
:10006000F70200009D030000F7020000F702000005
:10007000F7020000F7020000F7020000F70200009C
:10008000F7020000F7020000F7020000F70200008C
:10009000F7020000F7020000F7020000F70200007C
:1000A000F7020000F7020000F7020000F70200006C
:1000B000F7020000F702000000000000000000004E
:1000C000F7020000F7020000F7020000F70200004C
:1000D000F7020000F7020000F7020000F70200003C
:1000E000F702000000000000000000000000000017
:1000F00000000000F702000000000000F70200000E
:1001000000000000000000000000000000000000EF
:1001100000000000000000000000000000000000DF
:1001200000000000000000000000000000000000CF
:1001300000000000000000000000000000000000BF
:1001400000000000000000000000000000000000AF
:10015000000000000000000000000000000000009F
:10016000000000000000000000000000000000008F
:10017000000000000000000000000000000000007F
:10018000000000000000000000000000000000006F
:10019000000000000000000000000000000000005F
:1001A000000000000000000000000000000000004F
:1001B000000000000000000000000000000000003F
:1001C000000000000000000000000000000000002F
:1001D000000000000000000000000000000000001F
:1001E000000000000000000000000000000000000F
:1001F00000000000000000000000000000000000FF
:1002000010B5054C237833B9044B13B10448AFF350
:1002100000800123237010BD6C010020000000004D
:10022000CC07000008B5034B1BB103490348AFF3EB
:10023000008008BD0000000070010020CC07000015
:10024000A3F5803A704700BF174B002B08BF134B34
:100250009D46FFF7F5FF00218B460F461348144AD1
:10026000121A00F095FA0E4B002B00D098470D4B58
:10027000002B00D098470020002104000D000D48FD
:10028000002802D00C48AFF3008000F05DFA200097
:10029000290000F097F800F043FA00BF00000800C2
:1002A0000000000000000000000002206C0100209F
:1002B000A802002000000000000000000649074AD4
:1002C000074B9B1A03DD043BC858D050FBDC00F001
:1002D00073F9FFF7B9FF0000D80700000000002005
:1002E0006C010020FEE7FEE7FEE7FEE7FEE7FEE723
:1002F000FEE7FEE7FEE7FEE7014B1B68184700BF7D
:10030000880100201F4B204A2048214970B4042650
:10031000C3F810650726C3F80062C3F8142540F23D
:100320005B62C3F81805C3F8382540F203101A229F
:10033000C3F83C15174DC3F834050021C3F8082550
:10034000154CC3F804556FF08E000122C3F800115C
:10035000C3F80C11C3F81C45C3F82405C3F82C15C9
:10036000C3F83025D3F8502642F0F85242F4F81280
:10037000C020C3F85026C3F84405C3F80C1570BC60
:10038000704700BF0010004008010001FF0003009B
:1003900055555500A401002000294176074BD3F89C
:1003A00040214AB1D3F80423D20305D5044A0020E2
:1003B0000121C3F840011170704700BF0090004058
:1003C000980100202DE980484FF080430021012250
:1003D000C3F8001183B019461A60D1F80031002B20
:1003E000FBD0644B00260127082042F210714FF425
:1003F0008032C3F80465DF60C3F81005C3F80865F0
:10040000C3F84015C3F804235B4A4FF40071116030
:100410001F60FFF777FF594859495A4C5A4DDFF88A
:100420007C91DFF87C81DFF87CE14FF0A0434FF452
:10043000804CC3F834773246C3F8387747600346B8
:10044000C0F810612878D0B150482F78066850481D
:10045000013680FB06A0A0EBE67000EB4000301AEE
:100460004C4E56F820A0494E87F001073060012617
:100470000AF07F002F70DE601E61C3F8080528783F
:100480000028DFD14FF0A04A4FF4005B4FF48040CA
:10049000CAF80CB5CAF80805D3F810010028FBD03B
:1004A000C3F81021D9F800000130C9F80000D3F8D2
:1004B0000004002849D0384F02200190019E38687E
:1004C000042E00F10100386009D8019F019E0198B7
:1004D000E75D8F550130019001980428F5D9C3F8E4
:1004E0000415CAF808B5CAF80CC55A60D3F800015B
:1004F0000028FBD00320C3F80021C3F80002D3F882
:100500000C010028FBD0C3F80C21D3F810010028FF
:10051000FBD0C3F81021DEF800000130CEF8000057
:100520000120C3F80445CAF808C51A605860D3F81A
:1005300000010028FBD00720C3F80021C3F8000207
:10054000287800287FF47EAFA0E702200190019E6A
:10055000D8F80000042E00F10100C8F80000BED851
:10056000019E01988A550130019001980428F7D91D
:10057000B5E700BF0090004000E100E0001000403F
:1005800000000020A401002098010020900100201C
:1005900056555555BC070000A00100209C010020C5
:1005A00094010020A4020020FEE700BFFEE700BF88
:1005B000FEE700BFFEE700BF524B1B680D2B57D173
:1005C0004FF080414FF080520020C1F80C014E4B9B
:1005D000C1F81001C1F83805D2F80404C3F82005A9
:1005E000D2F80804C3F82405D2F80C04C3F828058F
:1005F000D2F81004C3F82C05D2F81404C3F830055F
:10060000D2F81804C3F83405D2F81C04C3F8400526
:10061000D2F82004C3F84405D2F82404C3F84805EE
:10062000D2F82804C3F84C05D2F82C04C3F85005BE
:10063000D2F83004C3F85405D2F83404C3F8600586
:10064000D2F83804C3F86405D2F83C04C3F868054E
:10065000D2F84004C3F86C05D2F84424C3F87025DE
:10066000D1F80034DB0744BF6FF00103C1F8003458
:10067000264AD2F8883043F47003C2F88830BFF3BA
:100680004F8FBFF36F8F4FF01023D3F80022002A53
:1006900007DBD3F80432002B03DB1D4B1D4A1A6025
:1006A00070471D4A0123C2F80435D2F80034002BEC
:1006B000FBD04FF010231221174AC3F80012D2F8D2
:1006C0000034002BFBD04FF010231221124AC3F844
:1006D0000412D2F80034002BFBD000230E49C2F8DC
:1006E0000435D1F80034002BFBD0BFF34F8F0749FE
:1006F0000A4BCA6802F4E0621343CB60BFF34F8F2A
:1007000000BFFDE73001001000C0004000ED00E038
:10071000000100200090D00300E001400400FA0531
:1007200008B5074B044613B10021AFF30080054B19
:100730001868836A03B19847204600F031F800BF7B
:1007400000000000C807000070B50D4D0D4C641B83
:10075000A4100026A64209D10B4D0C4C00F022F843
:10076000641BA4100026A64205D170BD55F8043BB9
:1007700098470136EEE755F8043B98470136F2E713
:100780006401002064010020640100206801002051
:1007900002440346934200D1704703F8011BF9E776
:1007A000FEE700BFF8B500BFF8BC08BC9E46704726
:1007B000F8B500BFF8BC08BC9E46704700000000BA
:1007C0001A0000004E00000004010020000000009C
:0807D00070FAFF7F0100000038
:1007D8000004FFC1FB03000000000000000000004F
:1007E8000000000000000000000000000000000001
:1007F80000000000000000000000000000000000F1
:1008080000000000000000000000000000000000E0
:1008180000000000000000000000000000000000D0
:1008280000000000000000000000000000000000C0
:1008380000000000000000000000000000000000B0
:1008480000000000000000000000000000000000A0
:100858000000000000000000000000000000000090
:100868000000000000000000000000000000000080
:100878000000000000000000000000000000000070
:100888000000000000000000000000000000000060
:100898000000000000000000000000000000000050
:1008A8000000000000000000000000000000000040
:1008B8000000000000000000000000000000000030
:1008C8000000000000000000000000000000000020
:1008D8000090D003000000000000000000000000AD
:1008E8000000000000000000000000000000000000
:1008F80000000000000000000000000000000000F0
:1009080000000000000000000000000000000000DF
:1009180000000000000000000000000000000000CF
:1009280000000000000000000000000000000000BF
:0C09380000000000250200000102000089
:04000003000002BD3A
:00000001FF
