:1000000000000220BD020000E502000071050000B2
:1000100075050000790500007D0500000000000066
:10002000000000000000000000000000EF020000DF
:10003000F102000000000000F3020000F5020000E1
:10004000F7020000F7020000F9020000F7020000CA
:10005000F7020000F7020000F7020000F7020000BC
:10006000F70200009D030000F7020000F702000005
:10007000F7020000F7020000F7020000F70200009C
:10008000F7020000F7020000F7020000F70200008C
:10009000F7020000F7020000F7020000F70200007C
:1000A000F7020000F7020000F7020000F70200006C
:1000B000F7020000F702000000000000000000004E
:1000C000F7020000F7020000F7020000F70200004C
:1000D000F7020000F7020000F7020000F70200003C
:1000E000F702000000000000000000000000000017
:1000F00000000000F702000000000000F70200000E
:1001000000000000000000000000000000000000EF
:1001100000000000000000000000000000000000DF
:1001200000000000000000000000000000000000CF
:1001300000000000000000000000000000000000BF
:1001400000000000000000000000000000000000AF
:10015000000000000000000000000000000000009F
:10016000000000000000000000000000000000008F
:10017000000000000000000000000000000000007F
:10018000000000000000000000000000000000006F
:10019000000000000000000000000000000000005F
:1001A000000000000000000000000000000000004F
:1001B000000000000000000000000000000000003F
:1001C000000000000000000000000000000000002F
:1001D000000000000000000000000000000000001F
:1001E000000000000000000000000000000000000F
:1001F00000000000000000000000000000000000FF
:1002000010B5054C237833B9044B13B10448AFF350
:1002100000800123237010BD6C010020000000004D
:100220008807000008B5034B1BB103490348AFF32F
:10023000008008BD00000000700100208807000059
:10024000A3F5803A704700BF174B002B08BF134B34
:100250009D46FFF7F5FF00218B460F461348144AD1
:10026000121A00F079FA0E4B002B00D098470D4B74
:10027000002B00D098470020002104000D000D48FD
:10028000002802D00C48AFF3008000F041FA2000B3
:10029000290000F097F800F027FA00BF00000800DE
:1002A0000000000000000000000002206C0100209F
:1002B000A402002000000000000000000649074AD8
:1002C000074B9B1A03DD043BC858D050FBDC00F001
:1002D00057F9FFF7B9FF0000940700000000002065
:1002E0006C010020FEE7FEE7FEE7FEE7FEE7FEE723
:1002F000FEE7FEE7FEE7FEE7014B1B68184700BF7D
:10030000880100201F4B204A2048214970B4042650
:10031000C3F810650726C3F80062C3F8142540F23D
:100320005B62C3F81805C3F8382540F203101A229F
:10033000C3F83C15174DC3F834050021C3F8082550
:10034000154CC3F804556FF08E000122C3F800115C
:10035000C3F80C11C3F81C45C3F82405C3F82C15C9
:10036000C3F83025D3F8502642F0F85242F4F81280
:10037000C020C3F85026C3F84405C3F80C1570BC60
:10038000704700BF0010004008010001FF0003009B
:1003900055555500A001002000294176074BD3F8A0
:1003A00040214AB1D3F80423D20305D5044A0020E2
:1003B0000121C3F840011170704700BF0090004058
:1003C000940100202DE980484FF080430021012254
:1003D000C3F8001183B019461A60D1F80031002B20
:1003E000FBD0594B00260127082042F210714FF430
:1003F0008032C3F80465DF60C3F81005C3F80865F0
:10040000C3F84015C3F80423504A4FF4007111603B
:100410001F60FFF777FF4FF0A0444D4B4D494E480A
:100420004E4DDFF84091DFF84081DFF840E1C4F83D
:1004300034774FF4804CC4F8387732465F60C3F8A5
:1004400010612E781EB12E7886F001062E702E785F
:10045000002EF6D14FF4005B4FF48046C4F80CB583
:10046000C4F80865D3F81061002EFBD0C3F8102142
:10047000D9F800600136C9F80060D3F80064002E96
:100480004ED002260196364EDDF804A03746366877
:10049000BAF1040F06F101063E600CD8DDF804A0A5
:1004A000019F019E10F80AA001F807A001360196ED
:1004B000019E042EF2D9C3F80415C4F808B5C4F897
:1004C0000CC55A60D3F80061002EFBD00326C3F898
:1004D0000021C3F80062D3F80C61002EFBD0C3F8F2
:1004E0000C21D3F81061002EFBD0C3F81021DEF8E8
:1004F00000600136CEF800600126C3F80405C4F898
:1005000008C51A605E60D3F80061002EFBD0072694
:10051000C3F80021C3F800622E78002E91D19BE72A
:1005200002260196019FD8F80060042F06F101060B
:10053000C8F80060BFD8019F019ECA5501360196D8
:10054000019E042EF7D9B6E70090004000E100E0DC
:100550000010004000000020A001002094010020B5
:100560009C0100209801002090010020A0020020A2
:10057000FEE700BFFEE700BFFEE700BFFEE700BFEB
:10058000524B1B680D2B57D14FF080414FF08052DA
:100590000020C1F80C014E4BC1F81001C1F838051C
:1005A000D2F80404C3F82005D2F80804C3F82405DF
:1005B000D2F80C04C3F82805D2F81004C3F82C05AF
:1005C000D2F81404C3F83005D2F81804C3F834057F
:1005D000D2F81C04C3F84005D2F82004C3F844053F
:1005E000D2F82404C3F84805D2F82804C3F84C050F
:1005F000D2F82C04C3F85005D2F83004C3F85405DF
:10060000D2F83404C3F86005D2F83804C3F864059E
:10061000D2F83C04C3F86805D2F84004C3F86C056E
:10062000D2F84424C3F87025D1F80034DB0744BF66
:100630006FF00103C1F80034264AD2F8883043F441
:100640007003C2F88830BFF34F8FBFF36F8F4FF046
:100650001023D3F80022002A07DBD3F80432002B42
:1006600003DB1D4B1D4A1A6070471D4A0123C2F867
:100670000435D2F80034002BFBD04FF010231221A8
:10068000174AC3F80012D2F80034002BFBD04FF009
:1006900010231221124AC3F80412D2F80034002B9E
:1006A000FBD000230E49C2F80435D1F80034002BEA
:1006B000FBD0BFF34F8F07490A4BCA6802F4E062D0
:1006C0001343CB60BFF34F8F00BFFDE73001001035
:1006D00000C0004000ED00E0000100200090D003C9
:1006E00000E001400400FA0508B5074B044613B1C9
:1006F0000021AFF30080054B1868836A03B1984767
:10070000204600F031F800BF000000008407000020
:1007100070B50D4D0D4C641BA4100026A64209D1E6
:100720000B4D0C4C00F022F8641BA4100026A642CE
:1007300005D170BD55F8043B98470136EEE755F8F2
:10074000043B98470136F2E7640100206401002071
:10075000640100206801002002440346934200D156
:10076000704703F8011BF9E7FEE700BFF8B500BFCB
:10077000F8BC08BC9E467047F8B500BFF8BC08BC82
:0C0780009E4670470401002000000000AD
:08078C00B4FAFF7F0100000038
:100794000004FFC1FB030000000000000000000093
:1007A4000000000000000000000000000000000045
:1007B4000000000000000000000000000000000035
:1007C4000000000000000000000000000000000025
:1007D4000000000000000000000000000000000015
:1007E4000000000000000000000000000000000005
:1007F40000000000000000000000000000000000F5
:1008040000000000000000000000000000000000E4
:1008140000000000000000000000000000000000D4
:1008240000000000000000000000000000000000C4
:1008340000000000000000000000000000000000B4
:1008440000000000000000000000000000000000A4
:100854000000000000000000000000000000000094
:100864000000000000000000000000000000000084
:100874000000000000000000000000000000000074
:100884000000000000000000000000000000000064
:100894000090D003000000000000000000000000F1
:1008A4000000000000000000000000000000000044
:1008B4000000000000000000000000000000000034
:1008C4000000000000000000000000000000000024
:1008D4000000000000000000000000000000000014
:1008E4000000000000000000000000000000000004
:0C08F400000000002502000001020000CE
:04000003000002BD3A
:00000001FF
