:1000000000000220BD020000E5020000A51600006D
:10001000A9160000AD160000B11600000000000097
:10002000000000000000000000000000EF020000DF
:10003000F102000000000000F3020000F5020000E1
:10004000F7020000F702000069070000F702000055
:10005000F7020000F7020000F7020000F7020000BC
:10006000F7020000D5130000F7020000F7020000BD
:10007000F7020000F7020000F7020000F70200009C
:10008000F7020000F7020000F7020000F70200008C
:10009000F7020000F7020000F7020000F70200007C
:1000A000F7020000F7020000F7020000F70200006C
:1000B000F7020000F702000000000000000000004E
:1000C000F7020000F7020000F7020000F70200004C
:1000D000F7020000F7020000F7020000F70200003C
:1000E000F702000000000000000000000000000017
:1000F00000000000F702000000000000F70200000E
:1001000000000000000000000000000000000000EF
:1001100000000000000000000000000000000000DF
:1001200000000000000000000000000000000000CF
:1001300000000000000000000000000000000000BF
:1001400000000000000000000000000000000000AF
:10015000000000000000000000000000000000009F
:10016000000000000000000000000000000000008F
:10017000000000000000000000000000000000007F
:10018000000000000000000000000000000000006F
:10019000000000000000000000000000000000005F
:1001A000000000000000000000000000000000004F
:1001B000000000000000000000000000000000003F
:1001C000000000000000000000000000000000002F
:1001D000000000000000000000000000000000001F
:1001E000000000000000000000000000000000000F
:1001F00000000000000000000000000000000000FF
:1002000010B5054C237833B9044B13B10448AFF350
:1002100000800123237010BD880100200000000031
:100220004019000008B5034B1BB103490348AFF365
:10023000008008BD000000008C0100204019000073
:10024000A3F5803A704700BF174B002B08BF134B34
:100250009D46FFF7F5FF00218B460F461348144AD1
:10026000121A01F033FB0E4B002B00D098470D4BB8
:10027000002B00D098470020002104000D000D48FD
:10028000002802D00C48AFF3008001F0FBFA2000F8
:10029000290001F0DBF801F0E1FA00BF00000800DE
:1002A0000000000000000000000002208801002083
:1002B0006C05002000000000000000000649074A0D
:1002C000074B9B1A03DD043BC858D050FBDC01F000
:1002D000F1F9FFF7B9FF00004C1900000000002001
:1002E00088010020FEE7FEE7FEE7FEE7FEE7FEE707
:1002F000FEE7FEE7FEE7FEE700B585B00346002116
:1003000001AA44F20100CDE90111039300F004F8C1
:1003100005B05DF804FB00BF72B6094B1B68DB0734
:1003200000D500BEBFF34F8F0649074BCA6802F4E1
:10033000E0621343CB60BFF34F8F00BFFDE700BF08
:10034000F0ED00E000ED00E00400FA0559B142B123
:10035000531E1A4005D1826001608380C26010463E
:100360007047092070470E20704700BF10B48468A2
:10037000C26803468088121B904203D204205DF8B5
:10038000044B7047DA681C6802400020A154DA6808
:100390000132DA605DF8044B704700BF03468068A5
:1003A000DA6890420DD010B498689A881C680240B0
:1003B0000020A25C0A709A6801329A605DF8044BD2
:1003C00070470520704700BF30B50478012C83B01A
:1003D00004D0022C2DD0ECB103B030BD037A002B39
:1003E0003CD04368364D19782846FFF7BFFF0028F8
:1003F00054D0344B01901B688DF8004068469847F4
:10040000A968EB68AA885B1A9A4227D22E4B012270
:100410001A70E1E72D492E48FFF7C0FF00282ED0C3
:10042000284B03221B688DF800206846984703B0CC
:1004300030BD284B284D1A78C168AA5C01918DF80F
:100440000040B2B9254903F10C00012200F0FEFB87
:100450001C4B68461B68984703B030BD1D4B1E4AB5
:100460001B781E49D35C0122A3B11D4800F0C2FED7
:10047000B2E71A49181D012200F0BCFEE8E7154852
:10048000154A0378D35CA3B110490122043000F06F
:1004900049FEA1E7134800F0D9FB9DE7AA68EB6885
:1004A0009A42ADD0074B8DF800001B68684698470C
:1004B000A6E7064901220C3000F054FB8CE700BF90
:1004C000A8010020A4010020B8010020D0010020D4
:1004D000BC0100200000002068050020CC010020A5
:1004E000040000200C0000202DE9F041334D8AB0BB
:1004F0002A60002956D08A8880460D46304809680F
:100500001C46FFF723FF10B10AB0BDE8F081AA89AD
:10051000A9682C48FFF71AFF0028F5D12A4E98F851
:1005200010C02A4F0FCE02AD0FC596E80F0098F805
:100530001160BCF1000C85E80F0018BF4FF0010CF2
:10054000D8F804300193002ED8F81430D8F80850A9
:100550008DF8244014BF0E220022D8F80C40D8F8A1
:1005600000608DF81D200893194A019B8DF81CC06E
:1005700002A93846CDE904450396029300F0B0F88D
:100580000028C1D1D8F80030124A01331070BBD016
:10059000114A3B78D35C4BB11049381D012200F061
:1005A00029FEB1E707200AB0BDE8F0810B4907F149
:1005B0000C00012200F04AFBA6E700BFA4010020C6
:1005C000A8010020BC010020F81800000000002055
:1005D000C9030000B801002068050020CC010020FC
:1005E00070B501461548FFF7C1FE044608B1204624
:1005F00070BD134D134E2B78F35CA3B1281D00F092
:10060000EBFD0028F3D110490C48FFF7C7FE002886
:10061000EDD12B780C49F35C01224BB1BDE8704061
:100620000A4800F07FBD05F10C0000F003FBE8E78D
:10063000BDE87040064800F095BA00BFBC0100203C
:100640000000002068050020D001002004000020E8
:100650000C00002072B6024A136801331360704721
:10066000D4010020034A1368013B136003B962B64A
:10067000704700BFD401002030B585B004784568CC
:100680008DF80040D0E90240064A074B039053F82A
:100690002130019552F821108DF80840684698479E
:1006A00005B030BDD8010020E001002030B585B094
:1006B000047845688DF80040D0E90240064A074BAF
:1006C000039053F82130019552F821108DF808401D
:1006D0006846984705B030BDD8010020E0010020F1
:1006E0002DE9F047DFF8748090F800E04B7F08F8C0
:1006F0000E300D46074616460FCD88B06C460FC427
:1007000095E80F003D78DFF85890DFF858C018F8EA
:10071000055049F82E6084E80F004CF82E00CDF803
:1007200010E05DB1002E0B4A694607F1040008BFD6
:10073000324600F0E3FB08B0BDE8F087002E064A21
:10074000694607F10C0008BF324600F013F908B003
:10075000BDE8F08779060000AD06000068050020BE
:10076000E0010020D8010020014B1B68184700BFA2
:10077000E801002038B50C4B984213D100200D46FB
:10078000FFF768FF094B1C7924B10020FFF76AFFCF
:10079000112038BD012220461D601A71FFF762FF4B
:1007A000204638BD002038BD00200040E801002070
:1007B00030B56E4AD2F8043399058BB068D5D2F8BB
:1007C0002431002B64D00023C2F82431D2F8243124
:1007D00001934FF40171664B0198C2F8081393F826
:1007E000291009B901215160604902228DF81820B1
:1007F000D1F88024C1F880249869D968099200242E
:100800000025CDE90710C3E90645D3E9001206A883
:100810009047564AD2F81C31C3B1554B5869196AF2
:1008200088426AD993F8281001F0FF00002964D1AA
:10083000C2F81C01D2F81C11039103999C68186A34
:10084000196A205C01311962C2F81C05474AD2F8C6
:100850004431DBB10021464BC2F84411D2F84401C7
:1008600093F829100090009809B1012111609A694C
:1008700062B1586AD96800229A610122CDE9071055
:100880008DF8182006A8D3E9001290470BB030BDB0
:10089000364AD2F804335B07BBD5D2F80831002BB7
:1008A000B7D0334B996900293ED00021C2F8081116
:1008B000D2F8081104910499D868596AD2F8182519
:1008C00042545A6A996901325A625A6A8A42A0D1DC
:1008D000DA69002A31D0DD685C6A18699A61012101
:1008E0000022D860DA615A628DF81810CDE90754F9
:1008F000D3E9001206A890478BE71C4A0021C2F8F2
:100900001C11D2F81C210292029A5A69002A9DD029
:1009100058699A688DF8181008905961079206A8CE
:10092000D3E90012904791E7C2F80811D2F8080104
:1009300005900598D2F81825C7E793F8292012B931
:100940000A4A01215160094A4FF40171C2F80813A3
:10095000596ADA6808910024012007928DF818007E
:10096000D3E900129C6106A8904752E7002000409E
:10097000F00100202DE9F041DFF8E48106792C2315
:1009800003FB068382B093F82A30002B40F09E8050
:1009900005460C4600686D491746FFF7EBFE002838
:1009A00040F090802368591C19D01F2B4FF0010292
:1009B0008ABF67494FF0A04103F01F0302FA03F317
:1009C000C1F8083523681F2B86BF03F01F03604A58
:1009D0004FF0A04203F5E073032142F8231063684F
:1009E0005A1C0BD01F2B86BF03F01F03584A4FF031
:1009F000A04203F5E073002142F823102B68A2699E
:100A0000C3F82425217D637D2A680B43C2F86C3529
:100A1000D4E900122B68C3F81425C3F80C15237D04
:100A2000012B5FD02C2303FB06F308EB0302576076
:100A3000226948F803202A6897B30021237FC2F86F
:100A40001C11D2F81C2100922A68009FC2F84411A0
:100A5000D2F844112A6801913E4C0199C2F804432E
:100A60002A6842F3073100294FEA123232DB01F1E2
:100A7000604101F561415B01DBB281F800332A6816
:100A800042F30733002B4FEA123109DB324C0122CB
:100A90005B0901F01F0102FA01F144F823102A68F2
:100AA0002C2303FB0686012400230421C2F8001531
:100AB000C6E9063386F82A4086F82930736102B009
:100AC000BDE8F081112002B0BDE8F081082002B03D
:100AD000BDE8F081214902F00F025B011144DBB255
:100AE0000B76CCE7A368591C0BD01F2B86BF03F0F5
:100AF0001F0317494FF0A04103F5E073002241F8AE
:100B00002320E3685A1C1AD01F2B8ABF10494FF0CC
:100B1000A04103F01F03012202FA03F3C1F80835D4
:100B2000E3681F2B88BF03F01F0303F5E0738CBF3E
:100B300007494FF0A041032241F82320E3682A68C7
:100B4000A168C2F80835C2F810156BE7B1070000BC
:100B5000000300508000020000E100E0FCEC00E037
:100B6000F00100202DE9F041314E05792C2303FBE3
:100B700005630446586984B000284CD15A619960D5
:100B8000186283F828002268C2F81C01D2F81C11F0
:100B9000226802910121029F91602268D3F808C067
:100BA000C2F81C01D2F81C11019101991F6A196A3F
:100BB0001CF8077001311962C2F81C755A6812B12D
:100BC00004B0BDE8F0815F691A6A216897421BD9B9
:100BD000864602E093F828200ABBD1F81C21002A9F
:100BE000F8D0C1F81CE1D1F81C210392039AD3F884
:100BF00020801A6A1CF8088001321A62C1F81C852C
:100C00001A6A9742E9D82168D1F81C31002BFBD031
:100C10000123CB6004E0112004B0BDE8F0810F2077
:100C20002C2303FB056500236B6104B0BDE8F08154
:100C3000F00100200379044A2C2101FB03235869A9
:100C4000003818BF01207047F0010020F0B4504F69
:100C500006792C2303FB067386B05D68044625B134
:100C600003684FF40170C3F808032C2303FB0673D9
:100C7000986990B1D86900287CD11961DA612C2378
:100C800003FB06735A683AB323684FF40172C3F842
:100C90000423002006B0F0BC704793F829509A61F5
:100CA000D9605862D861002DE9D12368C3F8245176
:100CB000D3F8242123680192019AC3F80851D3F88C
:100CC000082123680292012202991A602C2303FB57
:100CD00006735A68002AD7D12168C1F84421D1F897
:100CE00044210392039A2268D2F82411D2F80851C1
:100CF000D2F8440155B9002833D10029F4D02C236F
:100D000003FB06760023B3610320C3E70029F6D175
:100D100048BB9969C2F8080181B1D2F80811049161
:100D20000499DD68596AD2F818256A545A6A996993
:100D300001325A625A6A9142D5D806E0D2F80811B7
:100D400005910599D2F818255B6A2C2303FB0676DA
:100D5000002296F82930B261A3B1236801221A60FB
:100D600098E70029CBD12C2303FB06760023B3613F
:100D70000F208FE755B123684FF40172C3F80423A5
:100D8000112087E7236801225A6083E7112081E759
:100D9000F001002030B5574BD3F824218BB0002A46
:100DA00075D00022C3F82421D3F824210492022212
:100DB0008DF81820049AD3F880144F4AC3F8801491
:100DC0000991D3F83C15D3680891002400250793B6
:100DD000C2E906451168536806A89847454BD3F801
:100DE000442152B10021444AC3F84411D3F84401CC
:100DF000916903900398002938D13E4BD3F8202104
:100E00005AB10021C3F82011D3F820210292012009
:100E1000394A029CD8605069D8B9364BD3F858216A
:100E2000AAB10021C3F85811D3F85801324A0190F1
:100E30000198506958B1D3F84C05936808908DF823
:100E400018105161079306A8D2E9001398470BB018
:100E500030BDD3F84C05936808908DF81810516197
:100E6000079306A8D2E900139847D6E7D3F83C3594
:100E7000D168089300240025012307918DF81830CC
:100E8000C2E90645D2E9001306A89847B5E7D3F8AA
:100E900010110029A2D0C3F81021D3F81011164860
:100EA000059105998469D3F83C15A14296D1C4698E
:100EB000A4B1D3F80052846125F02005C3F8005294
:100EC000D0E90343C26101220891C360016843680D
:100ED00007948DF8182006A898477FE7C2688461B8
:100EE0000123CDE907218DF81830D0E9001306A8B9
:100EF000984773E700200040200200202DE9F043CE
:100F00000779824E07EBC70306EB830387B093F89C
:100F10002030002B40F0B98004460D4600687C4923
:100F20009046FFF727FC002840F0AB802B68591C47
:100F30004FEAC70919D01F2B4FF001028ABF75492C
:100F40004FF0A04103F01F0302FA03F3C1F8083584
:100F50002B681F2B86BF03F01F036E4A4FF0A04281
:100F600003F5E073032142F823106B685A1C0BD081
:100F70001F2B86BF03F01F03664A4FF0A04203F504
:100F8000E073002142F823102368AA69C3F82425DE
:100F9000297D6A7D23680A43C3F86C25D5E90031B1
:100FA0002268C2F80C35C2F814152B7D012B78D0BD
:100FB00009EB070206EB8203C3F804802B6946F8AD
:100FC0002230B8F1000F4BD021682B7F524D002208
:100FD000C1F81021D1F8101101912168DDF804C089
:100FE000C1F82021D1F8201102912168DDF808C054
:100FF000C1F82421D1F8241103912168DDF80CC037
:10100000C1F84421D1F8441104912168DDF810C0E1
:10101000C1F85821D1F85811226805910599C2F8F4
:101020000453226842F3073100294FEA123230DBC1
:1010300001F1604101F561415B01DBB281F80033F0
:10104000226842F30733002B4FEA123109DB334D9C
:1010500001225B0901F01F0102FA01F145F823109A
:1010600022684F4406EB8706002301240821C2F8BA
:101070000015C6E9063386F82040736107B0BDE865
:10108000F083112007B0BDE8F083082007B0BDE869
:10109000F083234902F00F025B011144DBB20B76AF
:1010A000CEE7AB68591C0BD01F2B86BF03F01F0384
:1010B00018494FF0A04103F5E073002241F82320C6
:1010C000EB685A1C1AD01F2B8ABF12494FF0A0415F
:1010D00003F01F03012202FA03F3C1F80835EB689D
:1010E0001F2B88BF03F01F0303F5E0738CBF094972
:1010F0004FF0A041032241F82320EB682268A96841
:10110000C2F80835C2F8101552E700BF20020020CF
:10111000950D0000000300501003420000E100E0C4
:10112000FCEC00E0F0B401F06044B4F1005F82B088
:101130002CD10579274E05EBC50406EB8404034644
:101140006069EF0000283ED16261A1601A68C2F8B0
:101150002001D2F820C11A68CDF804C0DDF804C01F
:10116000C2F85801D2F8582100921A68DDF800C080
:10117000D4F814C0C2F84415C2F848C51A68012151
:101180009160626832B102B0F0BC7047102002B0CA
:10119000F0BC70471A6800E0C8B9D2F82011D2F844
:1011A00058010029F8D090B90121D1601B68D3F80B
:1011B0005821002AFBD07B1906EB830300225A61D9
:1011C00002B0F0BC7047112002B0F0BC70470F2095
:1011D000F1E700BF200200200379054A03EBC303B7
:1011E00002EB83035869003818BF0120704700BF25
:1011F0002002002001F06043B3F1005F5ED1F0B443
:101200000479474D04EBC40605EB860682B0766888
:10121000E30026B107684FF4047CC7F808C32344F1
:1012200005EB83039C694CBB9A61DC61D960036860
:10123000C3F81041D3F8106103680196019EC3F80A
:101240004441D3F8444103680094009CC3F834152A
:10125000C3F83825036801221A60047904EBC4033B
:1012600005EB8303E6005B6853B303684FF4047235
:10127000C3F80423002002B0F0BC7047DC69002CE6
:1012800037D11961DA610368C3F81041D3F81061EE
:1012900003680196019EC3F84441D3F844410368B2
:1012A0000094009CC3F83415C3F838250268D2F8BE
:1012B000003243F02003C2F80032CEE7102070471E
:1012C000036801E0E9B910BBD3F81021D3F8441149
:1012D000D3F82401002AF5D0344400284FF000034D
:1012E00005EB840518BF0320994218BF0F20AB619E
:1012F000C1E796B103684FF40472C3F804231120C8
:10130000B9E7344405EB84050F20AA61B3E7344400
:1013100005EB84050320A961ADE71120ABE700BF11
:10132000200200200378022B02D0012B00D070474E
:101330004068FEF7E1BF00BF1E4B1F4A1F4820490F
:1013400070B40326C3F80062D226C3F844650426AD
:10135000C3F810656FF08E06C3F81C25C3F824652A
:1013600000220126C3F82C25164DC3F83065272628
:10137000C3F85465144CC3F81455C3F8180540F26B
:101380005B6540F20310C3F83855C3F83C45C3F819
:1013900034050C680D490E4851F8241001F07F0106
:1013A000C3F80815C3F80405C3F81021C3F80C25C9
:1013B00070BC70470010004000294176FF00030018
:1013C0001400002008010001555555003019000097
:1013D00018000020074BD3F840214AB1D3F804236A
:1013E000D20305D5044A00200121C3F84001117041
:1013F000704700BF009000404402002030B50F4D00
:101400000F4B8BB004AC00930FCD0FC495E80300D5
:1014100084E803000B4C0C4A4FF48075072369469F
:1014200004A8CDE902450195FFF75EF808B90BB0B5
:1014300030BDFEF761FF0BB030BD00BF18190000D2
:101440004C02002060040020251300002DE9F04F1D
:10145000824B834AC3F844254FF0A0428149824D14
:10146000C3F840150124C020C3F84C5583B0C3F81D
:101470004815C3F80405C2F83447C2F83847FFF7E7
:10148000BDFF002000F0CAF9784B4FF0000806209D
:1014900042F210714FF48032C3F80485DC60C3F867
:1014A0001005C3F80885C3F84015C3F80423704A33
:1014B0004FF4007111601C60FFF73EFF4FF0804356
:1014C000DFF8D49101956B4EC3F800816A4F1C6020
:1014D0006A49DFF8C8A1DFF8C8B1694CC9F80080D3
:1014E00042463B781BB13B7883F001033B703B786D
:1014F00003F0FF05002BF4D14FF0A0480020C4F802
:1015000004654FF40053757160604FF48040327190
:10151000C8F808350222C8F80C05B270019A0123F8
:101520005360D3602360D4F80031002BFBD0C4F8A3
:101530000051D4F80C31002BFBD0C4F80C51D4F876
:101540001031002BFBD0C4F810510B68D9F80020E3
:1015500001330132322BC9F8002058D80B604FF408
:101560008042C8F808250123464A25606360C4F814
:101570000425454A1560D4F8102122BB40F601002D
:10158000D4F81021D2B901338342F9D13E4A4FF445
:10159000006313600123E3602361D4F81031002B52
:1015A000FBD0DAF80030D9F800200133CAF8003057
:1015B000C4F810513B78002B93D19FE7324AB3F522
:1015C000006F1360E6D0314B1B681BB94FF400531A
:1015D000C8F80C35DBF80030D9F800200133CBF81F
:1015E0000030D4F80034002BE2D0294B1868254B8A
:1015F00093F804C0531E5FFA83FE254B0130E64585
:10160000186010D02348036801330360D0E7DAF88C
:1016100000301E4A0D600A2B94BF00230123136083
:10162000CAF800509BE7174B9B78022BEAD1019830
:101630004FF0010CC0F804C0D0F84005A0F58F5061
:1016400018387F2803DD01980123C360B0E7C0B2DA
:10165000FEF7C6FFD9F800200849F4E700F0014082
:101660004080004004110040008000400090004095
:1016700000E100E018000020440200206405002082
:1016800000100040580300205C04002048020020A5
:10169000540300204C030020600500205804002063
:1016A00050030020FEE700BFFEE700BFFEE700BFDB
:1016B000FEE700BF524B1B680D2B57D14FF0804106
:1016C0004FF080520020C1F80C014E4BC1F81001C0
:1016D000C1F83805D2F80404C3F82005D2F808048C
:1016E000C3F82405D2F80C04C3F82805D2F8100476
:1016F000C3F82C05D2F81404C3F83005D2F8180446
:10170000C3F83405D2F81C04C3F84005D2F820040D
:10171000C3F84405D2F82404C3F84805D2F82804D5
:10172000C3F84C05D2F82C04C3F85005D2F83004A5
:10173000C3F85405D2F83404C3F86005D2F838046D
:10174000C3F86405D2F83C04C3F86805D2F8400435
:10175000C3F86C05D2F84424C3F87025D1F80034DE
:10176000DB0744BF6FF00103C1F80034264AD2F80A
:10177000883043F47003C2F88830BFF34F8FBFF353
:101780006F8F4FF01023D3F80022002A07DBD3F825
:101790000432002B03DB1D4B1D4A1A6070471D4AA3
:1017A0000123C2F80435D2F80034002BFBD04FF0EF
:1017B00010231221174AC3F80012D2F80034002B6C
:1017C000FBD04FF010231221124AC3F80412D2F8B2
:1017D0000034002BFBD000230E49C2F80435D1F8A9
:1017E0000034002BFBD0BFF34F8F07490A4BCA6868
:1017F00002F4E0621343CB60BFF34F8F00BFFDE7FD
:101800003001001000C0004000ED00E01801002091
:101810000090D00300E001400400FA050E4B10B424
:10182000002201210324C3F80425C3F808455960A8
:10183000C3F84025C3F84021C3F84421C3F8482128
:10184000C3F84C21D960C3F80022C3F81005D96051
:101850005DF8044B704700BF0080004008B5074B9F
:10186000044613B10021AFF30080054B1868836A6A
:1018700003B19847204600F031F800BF0000000097
:101880003C19000070B50D4D0D4C641BA4100026D2
:10189000A64209D10B4D0C4C00F022F8641BA41099
:1018A0000026A64205D170BD55F8043B9847013685
:1018B000EEE755F8043B98470136F2E77C0100203B
:1018C0007C0100207C0100208001002002440346AE
:1018D000934200D1704703F8011BF9E7FEE700BF10
:1018E000F8B500BFF8BC08BC9E467047F8B500BF0D
:1018F000F8BC08BC9E467047FFFFFFFFFFFFFFFFDD
:10190000FFFFFFFFFFFFFFFF0000000000000000DF
:101910000000D601060100000800000006000000DB
:1019200005000000070000000000000000E0D701F3
:10193000000000001A0000004E0000001C01002002
:0419400000000000A3
:08194400FCE8FF7F0100000038
:10194C0000000000002000400000000000200040CB
:10195C0000000000010000000004FFC1FBE70000D4
:10196C00000000000000000000000000000000006B
:10197C00000000000000000000000000000000005B
:10198C00000000000000000000000000000000004B
:10199C00000000000000000000000000000000003B
:1019AC00000000000000000000000000000000002B
:1019BC00000000000000000000000000000000001B
:1019CC00000000000000000000000000000000000B
:1019DC0000000000000000000000000000000000FB
:1019EC0000000000000000000000000000000000EB
:1019FC0000000000000000000000000000000000DB
:101A0C0000000000000000000000000000000000CA
:101A1C0000000000000000000000000000000000BA
:101A2C0000000000000000000000000000000000AA
:101A3C00000000000000000000000000000000009A
:101A4C00000000000000000000000000000000008A
:101A5C0000000000000000000090D0030000000017
:101A6C00000000000000000000000000000000006A
:101A7C00000000000000000000000000000000005A
:101A8C00000000000000000000000000000000004A
:101A9C00000000000000000000000000000000003A
:101AAC00000000000000000000000000000000002A
:101ABC0000000000000000000000000025020000F3
:041ACC000102000013
:04000003000002BD3A
:00000001FF
